:020000040800F2
:10000000A8040020010100087F1A0008CD1800088C
:100010007D1A0008B1040008B91B000800000000A8
:10002000000000000000000000000000A31A00080B
:100030001D06000800000000A11A0008D11A0008DF
:100040001B0100081B0100081B0100081B01000820
:100050001B0100081B0100081B0100081B01000810
:100060001B0100081B0100081B0100081B01000800
:100070001B0100081B0100081B0100081B010008F0
:100080001B0100081B01000875030008A11B0008E4
:10009000AD1B0008B5040008C10400081B010008DE
:1000A0001B0100081B0100081B0100081B010008C0
:1000B0001B0100081B0100081B0100081B010008B0
:1000C0001B0100081B0100081B0100081B010008A0
:1000D0001B0100081B0100081B0100081B01000890
:1000E0001B0100081B0100081B010008DFF80CD0F1
:1000F00000F01EF900480047DD1B0008A80400209E
:100100000648804706480047FEE7FEE7FEE7FEE7B1
:10011000FEE7FEE7FEE7FEE7FEE7FEE7591B000805
:10012000ED000008202A04DB203A21FA02F0002129
:10013000704721FA02F3D040C2F1200291400843F7
:10014000194670472DE9FE4F81EA030404F000448C
:1001500021F0004100944FF0000B23F0004350EADF
:1001600001045ED052EA03045BD0C3F30A54C1F326
:100170000A552C44A4F2F3340194A0FB0254C1F3B9
:10018000130141F48011C3F3130343F4801301FB03
:10019000024400FB034E840A970A44EA815447EA6A
:1001A0008357A4FB076802958D0A05FB07854FEA74
:1001B000932C04FB0C542705029D4FEA065847EA8E
:1001C0001637B5EB08056EEB070C870E920E47EA63
:1001D000811742EA8312A7FB0201B6EB0B0164EB25
:1001E00000042B0D43EA0C335E1844EB1C50DA4636
:1001F0005146E7FB0201C5F313044FEA0B3343EA10
:1002000014534FEA0432019C43EA0603A4F10C04A0
:100210000294009CCDE900B400F03BF803B0BDE8C7
:10022000F08F00200146F9E70EB540F2334102910C
:100230000021CDE900110A460B4600F02AF803B070
:1002400000BDC1F30A5210B5C1F3130140F2FF33F0
:1002500041F480119A4201DA002010BD40F233438C
:100260009A42A2F2334203DC5242FFF75BFF10BD19
:10027000904010BD10B5141E73F1000408DA401C44
:1002800041F1000192185B411A4301D120F00100B5
:1002900010BD2DE9F04D92469B4611B1B1FA81F2A5
:1002A00002E0B0FA80F22032904600F053F80446A3
:1002B0000F4640EA0A0041EA0B0153465A460843FA
:1002C00013D0114653EA010019D0C8F1400250463C
:1002D000FFF728FF05460E4650465946424600F0B5
:1002E00039F8084305D0012004E020463946BDE82E
:1002F000F08D0020054346EAE0762C4337430A9808
:100300006305E40AA0EB08000022FD0A44EA475412
:100310000A3002D500200146E9E7010510196941BC
:10032000DDE9084500196941BDE8F04DA2E700008C
:10033000064C074D06E0E06840F0010394E8070032
:1003400098471034AC42F6D3FFF7D4FEDC1C00080B
:10035000FC1C0008202A04DB203A00FA02F10020ED
:1003600070479140C2F1200320FA03F319439040F3
:1003700070470000014800F002BA00003000002081
:1003800070B5044600688168C943C9071CD18168FB
:1003900021F00101816000F0C3FE05460FE000BFBF
:1003A00000F0BEFE401B022809D9A06A40F01000F0
:1003B000A062E06A40F00100E062012070BD2068A8
:1003C0008068C043C007EBD0002070BD10B5014667
:1003D000406A826A12F0500F05D0006A026BBDE8D5
:1003E000104008461047816A41F40071816201683B
:1003F0008968C1F3424107290CD1C16851B9816AAA
:1004000021F480718162816AC90403D4816A41F058
:100410000101816200F082F910BD10B5406A816A65
:1004200041F040018162C16A41F00401C16200F003
:10043000A2F910BD10B5406A00F09CF910BD000093
:10044000F8B500260446009600688168C943C907CC
:1004500028D0816841F00101816013481349006888
:10046000B0FBF1F000E0401E00900028FBD100F04E
:1004700057FE054611E000BF00F052FE401B022867
:100480000BD9A06A40F01000A062E06A40F00100C1
:10049000E06284F824600120F8BD20688068C043D1
:1004A000C007E9D10020F8BD1800002040420F002D
:1004B000FEE70000014800F015BB000060000020CE
:1004C000014800F00FBB00006000002010B50029BB
:1004D00058D0826B4FF4D873046803EB0113E458CF
:1004E00014F0040494600468E4584DD0E4085460A7
:1004F0000468E35803F00203D3604FF4DA7304682E
:1005000003EB0113E45804F00F0414611162046852
:10051000E358C3F30723D3614FF4DC73046803EBA0
:100520000113E45814750468E458240A54750468E7
:10053000E458240C94750468E3581B0ED3754FF4EB
:10054000DE73046803EB0113E45814760468E4587E
:10055000240A54760468E458240C94760468E3581A
:100560001B0ED3760368202289B11A610268536991
:1005700023F05003536190F83C20222A0DD0322AF8
:100580000BD00FE0426BA5E7640D1460B0E7DA60B2
:100590000268536923F00A03ECE70268536923F405
:1005A0000F43536112220123002990F83C1006D01A
:1005B000522915D0622916D0722906D115E0422998
:1005C0000ED0622908D0722908D080F83C3000BFD4
:1005D00000F084FC002010BD322107E0522105E02C
:1005E00080F83C20F4E7222100E0422180F83C1012
:1005F000EEE730B590F840500124AC40C56B6C601C
:10060000046863604368102B036803D09960006836
:10061000C26030BD9A600068C16030BD70477047ED
:10062000F8B50024009490F824202546012A12D021
:10063000012280F824204A681F23072A0DD2066869
:10064000776B521E02EB820293409F430B689340EC
:100650001F43776319E00220F8BD06680D2A0AD20D
:10066000376BD21F02EB820293409F430B6893408B
:100670001F43376309E0F76A0D3A02EB82029340A9
:100680009F430B6893401F43F7620A68072306687D
:100690000A2A0AD3F7680A3A02EB420293409F43C0
:1006A0008B6893401F43F76008E0376902EB420212
:1006B00093409F438B6893401F4337610A68102A19
:1006C00001D0112A20D1124B02689A4217D19368A7
:1006D0001B0219D4936843F400039360096810293E
:1006E00012D10C490C4A0968B1FBF2F101EB81010E
:1006F000490000E0491E00910029FBD104E0816A15
:1007000041F020018162012480F824502046F8BD88
:10071000002401401800002040420F0070B505463B
:100720001348D0E90040A84220D1207F70B9284664
:1007300000F022F8A268216821F81200A168491C83
:10074000A1602069814201D30020A060206A00B12D
:100750008047207F012809D1206B00B180472846BF
:10076000A2692168BDE8704000F034B970BD000096
:100770001C000020704770470068C06C704710B5BF
:10078000044600684168890626D50168890723D593
:10079000A16AC90603D4A16A41F40071A16281680B
:1007A000C1F34241072910D1E16871B9416821F0D4
:1007B00020014160A06A20F48070A062A06AC00499
:1007C00003D4A06A40F00100A0622046FFF7A6FF14
:1007D00021686FF0120008602068416809062ED574
:1007E000016849072BD5A16AC90603D4A16A41F45F
:1007F0000051A1628168C1F30231072909D0416823
:10080000490515D48168C1F34241072910D1E16837
:1008100071B9416821F080014160A06A20F48050E4
:10082000A062A06AC00503D4A06A40F00100A062E3
:100830002046FFF7F4FE21686FF00C000860206886
:10084000416849060DD50068C0070AD0A06A40F487
:100850008030A062204600F093F821686FF001001C
:10086000086010BD2DE9F0414FF0000704003D463F
:100870007ED0A06A002628B9E66284F8246020466B
:1008800000F080F82046FFF77BFDA16A01F010011F
:10089000014304D0A06A40F01000A06268E0A16AA1
:1008A00021F4885141F00201A1626268E169E368C4
:1008B0000A4347EA43010A43A1684FF48077B942EB
:1008C00008D0012906D00021D4F814C0BCF1010FD2
:1008D00002D00AE03946F7E7F3B1A36A43F02003F8
:1008E000A362E36A43F00103E3622368D3F804C020
:1008F0002CF4694C4CEA010CC3F804C023689968D5
:10090000DFF870C001EA0C0111439960A168B94297
:100910000BD0012909D00CE0DFF85CC0A3690CEB17
:1009200043330B4343F40061DFE7218A0D05A5F54E
:1009300080152168CB6A23F470032B43CB622168B6
:1009400089680E4B1940914208D1E662A16A21F0F4
:10095000020141F00101A162BDE8F081A06A20F02E
:10096000020040F01000A062E06A40F00100E06286
:100970000120F1E7FDF7E1FF00E0FFFFFE0E1FFFA2
:100980007047000000B500680F4985B0884218D153
:100990000E48816941F4007181618069694600F403
:1009A000007004900120009003200190084800F09E
:1009B000CFFA00221146122000F046FC122000F06F
:1009C00037FC05B000BD00000024014000100240CB
:1009D000000801402DE9F047894604463B4900687C
:1009E0003B4F0E1D9046884201D0B84207D1306877
:1009F00010F4702F03D001252846BDE8F08794F845
:100A0000240001280CD0012084F824002046FFF7A0
:100A100017FD05004FF0000004D084F82400EBE738
:100A20000220EAE7A16A40F60162914341F4807135
:100A3000A1622168B94218D1326812F4702F14D023
:100A4000A16A41F48011A1623168490505D5A16A06
:100A500021F4005141F48051A162A16AC9040AD570
:100A6000E16A21F00601E16206E0A26A22F4801246
:100A7000A2624968E9E7E06284F82400216A154827
:100A80008862216A1448C862216A14480863216890
:100A90006FF0020008602068816841F48071816015
:100AA000216843464A464C31206A00F019FA206812
:100AB0008168C1F342410729816803D041F4801164
:100AC000816099E741F4A001FAE7000000240140A9
:100AD00000280140CD030008350400081B0400086D
:100AE000704700002DE9F041044600680026C16807
:100AF000C1F300134169C1F3C002102113B10AB15F
:100B00004E01C160206802694369C2F30012C3F359
:100B100080131AB113B146F48066016121684869F7
:100B20004FF00105C043C0074ED18A687648904314
:100B300023D000208B68754A9A4320D000228F680A
:100B4000734BBB431DD00023104318433CD088682F
:100B50008A68C0F340008B68C2F3402203F00103AF
:100B60001043184329D04A69204622F001024A6105
:100B700094F83C10122906D00AE00120DAE701229D
:100B8000DDE70123E0E701684A6922F40F424A6188
:100B900090F83C10422908D0522908D0722908D078
:100BA00080F83C5000F09BF909E0222102E032215C
:100BB00000E0622180F83C10F4E746F4006620680B
:100BC0008168544A114381602168C868496910F0FE
:100BD000030FC1F3400104D019B100212046FFF7F3
:100BE00075FC21680869496910F0030FC1F3001111
:100BF00004D019B101212046FFF768FC206C304376
:100C0000206420688169426911F0010F4369C2F3D1
:100C10000022C3F3C03305D022B11BB1216C41F0D7
:100C2000010121648169C1F340034169C1F340229C
:100C30004169C1F3C0312BB122B119B1216C41F02E
:100C4000020121648169C1F3800341694269C1F3F2
:100C50008021C2F3C0322BB121B11AB1216C41F015
:100C600004012164816911F0700F08D000224169EC
:100C7000C1F3C0234169C1F3C03112B121E00122A7
:100C8000F5E7F3B1E9B1816901F0700140292FD096
:100C900006DC102909D020290BD030290DD123E002
:100CA000502929D0602908D12AE0216C41F008019F
:100CB00002E0216C41F010012164816921F0700192
:100CC0008161206C00280DD021680420486084F8E0
:100CD0003C502068416948F65B729143416120466F
:100CE000FFF7FEFEBDE8F081216C41F02001E3E753
:100CF000216C41F04001DFE7216C41F08001DBE72E
:100D0000216C41F48071D7E7010000040001000864
:100D100000000110090501002DE9F04104004FF029
:100D2000000504D094F83C00002618B107E001202B
:100D3000BDE8F08184F83D60204600F083F8022091
:100D400084F83C002068016821F0020101602068FD
:100D5000016841F00101016000F0E2F907464FF03F
:100D6000030804E000F0DCF9C01B0A2853D820680F
:100D70004068C007F6D021684868C00758D0A0690D
:100D8000012801D145F08005E06901282FD025F028
:100D90004000226A012A2DD020F02000626A012A38
:100DA0002BD020F01000A26A012A29D020F00800E0
:100DB000E26A012A27D020F004000A6822F0FC022F
:100DC00002430A60D4E902010843D4E90412114342
:100DD00008436168491E08432168C86120680168AA
:100DE00021F00101016000F09BF9054618E045F093
:100DF0004000CEE740F02000D0E740F01000D2E7FE
:100E000040F00800D4E740F00400D6E700F088F98D
:100E1000401B0A2804D904F83C8F0320667087E73A
:100E200020684068C007F1D120684068C00703D03F
:100E3000042084F83C007AE72664012084F83C0012
:100E4000002075E710B50068214986B088423DD181
:100E50002048C16941F00071C161C0691E4C00F0B9
:100E6000007004904FF40060009000200190029008
:100E70006946204600F06CF8A01400900220019012
:100E8000032003906946204600F062F800221146D4
:100E9000132000F0D9F9132000F0CAF900221146FE
:100EA000142000F0D1F9142000F0C2F900221146FC
:100EB000152000F0C9F9152000F0BAF900221146FA
:100EC000162000F0C1F9162000F0B2F906B010BDEE
:100ED0000064004000100240000801407047704765
:100EE00070B5044690F82000002501280CD00120A0
:100EF00084F8200094F821600020012E06D084F8A8
:100F000020000225284670BD022070BD022684F80C
:100F10002160A0632068066826F00106066020466E
:100F2000FFF767FBE06A00282068016802D041F003
:100F30000E0106E021F0040101602068016841F023
:100F40000A0101602068016841F001010160D9E7F0
:100F50002DE9F84FDFF890A100220AF1040B1446A6
:100F600001274FF00F090BF1040E00BF0B6807FAC1
:100F700004F52B40AB4274D1DFF870C14E68A6EB8C
:100F80000C0866452BD00DDC032E34D005DC36B3BF
:100F9000012E19D0022E2FD11BE0112E16D0122EA9
:100FA0002AD119E0B8F5881F19D006DCB8F5803FC2
:100FB00015D0B8F5801F1FD111E0B8F5001F0ED075
:100FC000B8F5041F18D10AE0CA6815E0CA68121DF6
:100FD00012E0CA6808320FE0CA680C320CE08A6876
:100FE0002AB1012A4FF0080203D0456104E004222F
:100FF00002E0056100E00022FF2B01D8064601E077
:1010000000F104064FEA840501D9A5F12005D6F8C0
:1010100000C009FA05F82CEA080C02FA05F54CEABA
:10102000050CC6F800C04D68ED0057D5304DAE69CF
:1010300046F00106AE61AD6924F0030605F0010536
:1010400000952C4D06EB050CDCF80850A6074FEA7E
:10105000167809FA08F6B543274EB04202D10026A9
:1010600010E03BE0254EB04201D101260AE0244EBB
:10107000B04201D1022605E0224EB04201D1032642
:1010800000E0042606FA08F62E43CCF808604D6806
:10109000DAF80060ED03554601D51E4300E09E439B
:1010A0002E604D68DBF80060AD035D4601D51E4340
:1010B00000E09E432E604D68DEF80060ED0275464C
:1010C00001D51E4300E09E432E604D68AD020E4DDB
:1010D0002E6801D51E4300E09E432E60641C102C38
:1010E000FFF444AFBDE8F88F000401400000111088
:1010F000001002400000014000080140000C0140C7
:1011000000100140001401400C040140C2684A4034
:10111000C26070470AB1016170470904FBE7000033
:1011200001488068704700000C0000200248816878
:1011300002781144816070470C000020074810B508
:10114000016841F010010160032000F09DF80020CB
:1011500000F006F800F024F8002010BD0020024046
:1011600070B50D4D04464FF47A712878B1FBF0F05C
:101170000A490968B1FBF0F000F090FB48B9102C67
:1011800007D200222146501E00F05EF800206C605D
:1011900070BD012070BD00000C0000201800002070
:1011A000214808B5816941F001018161816901F03F
:1011B00001010091C16941F08051C161C06900F035
:1011C00080500090032000F05FF8002211466FF07D
:1011D0000B0000F039F8002211466FF00A0000F011
:1011E00033F8002211466FF0090000F02DF80022BC
:1011F0001146501F00F028F800221146101F00F081
:1012000023F800221146901E00F01EF8002211461D
:10121000501E00F019F80548416821F0E06141F0E6
:101220000071416008BD0000001002400000014054
:1012300000F01F02012191404009800000F1E020F0
:10124000C0F8001170470000F0B40E4B1B680C464C
:10125000C3F30223C3F10705042D00D90425191D8A
:10126000072901D2002300E0DB1E012606FA05F162
:10127000491E214099409E40761E16403143F0BCE5
:1012800000F0FEBB0CED00E0064900F00702086824
:101290004FF6FF03184040EA0220034A104308605B
:1012A000704700000CED00E00000FA052DE9F8435E
:1012B00005460078354CC00754D0E0690026C000D0
:1012C00008D4E06940F08050E061E069012600F058
:1012D000805000902E480168C90512D401688046EC
:1012E00041F480710160FFF71BFF074605E000BF76
:1012F000FFF716FFC01B642823D8D8F80000C005EC
:10130000F6D5206A10F4407021D0A98801F440710C
:1013100081421CD0206A1F49012220F440700A60DB
:1013200000220A602062C00711D0FFF7F9FE0746CD
:1013300041F2883808E000BFFFF7F2FEC11B4145CB
:1013400002D90320BDE8F883206A8007F4D5206A1B
:10135000696820F44070084320621EB1E06920F003
:101360008050E0612878800705D56068A96820F47E
:101370004040084360602878C00605D56068E96889
:1013800020F48000084360600020DBE7001002408A
:1013900000700040400442422DE9F047DFF83C81F4
:1013A00005460E46D8F8000000F00700B0420CD207
:1013B000D8F8001021F007013143C8F80010D8F820
:1013C000000000F00700B04263D12878444C800749
:1013D00005D56068A96820F0F000084360602878AF
:1013E000C00745D06868012816D02168022816D0A9
:1013F000890700294DDA616821F00301014361602A
:10140000FFF78EFE6968074641F2883001290FD048
:101410000229814619D027E021688903E9E789017B
:10142000E7E700BFFFF77CFEC11B494501D918E083
:1014300081466068C0F381000128F3D118E000BF45
:10144000FFF76EFEC11B49450BD86068C0F38100F1
:101450000228F5D10CE000BFFFF762FEC11B494531
:1014600002D90320BDE8F087606810F00C0FF3D1BB
:10147000D8F80010404601F00701B1420BD90168CD
:1014800021F0070131430160006800F00700B0421D
:1014900001D00120E6E72878400705D56068E968B3
:1014A00020F4E060084360602878000706D5606893
:1014B000296920F4605040EAC100606000F01CF827
:1014C0006168084AC1F30311515CC84006490860CD
:1014D0000020FFF745FE0020C4E700000020024086
:1014E00000100240C81C00081800002001480068D5
:1014F000704700001800002012A185B00FC98DE8C8
:101500000F0014A0144A006804905168134801F0B9
:101510000C03042B10D0082B0ED1C1F38343C90355
:101520001DF803000AD5516804AAC1F34041515C7B
:101530000A4A5043B0FBF1F005B0704708494843F0
:10154000FAE7000002030405060708090A0B0C0D60
:101550000E0F1010010200000010024000127A006D
:1015600000093D002DE9F84F04460078B94DC00749
:1015700048D06868C0F38100012807D06868C0F3CC
:101580008100022809D16868C00306D52868800355
:1015900038D5606800286FD034E06068B0F5803FCF
:1015A0000BD010B1B0F5A02F11D0286820F48030F6
:1015B0002860286820F4802002E0286840F4803009
:1015C0002860606888B1FFF7ABFD064609E028682F
:1015D00040F480202860F0E7FFF7A2FD801B64281C
:1015E00075D828688003F7D50CE0FFF799FD06460B
:1015F00005E000BFFFF794FD801B6428F0D8286841
:101600008003F7D42078944E80074FF001094FF003
:1016100000083BD5686810F00C0F07D06868C0F36D
:101620008100022809D16868C00306D428688007B1
:1016300014D5206901281FD110E02069B0B1C6F887
:101640000090FFF76DFD074605E000BFFFF768FD5E
:10165000C01B0228C4D828688007F7D528686169AC
:1016600020F0F80040EAC10028600FE0C6F80080D2
:10167000FFF756FD074606E0E9E000BFFFF750FD23
:10168000C01B022823D828688007F7D420780007D9
:101690002CD57248A169D9B1C0F80090FFF740FD80
:1016A000074604E0FFF73CFDC01B02280FD8686A1C
:1016B0008007F7D56A484FF4FA510068B0FBF1F0A3
:1016C000009000BF0098411E0091FAD20EE080E029
:1016D000C0F80080FFF724FD074604E0FFF720FD77
:1016E000C01B022875D8686A8007F7D420784007A5
:1016F00060D5E8690027C00008D4E86940F0805050
:10170000E861E869012700F08050009055480168C1
:10171000C90513D40168834641F480710160FFF765
:10172000FFFC824606E000BFFFF7FAFCA0EB0A00D0
:1017300064284ED8DBF80000C005F5D5E068012824
:101740000AD008B1052813D0286A20F001002862C9
:10175000286A20F0040002E0286A40F001002862B4
:10176000E06841F2883B98B1FFF7DAFC82460BE073
:10177000286A40F004002862EEE700BFFFF7D0FCC3
:10178000A0EB0A0159455AD8286A8007F6D50CE023
:10179000FFF7C6FC824605E0FFF7C2FCA0EB0A019A
:1017A00059454CD8286A8007F6D41FB1E86920F063
:1017B0008050E861E06988B36968C1F3810102295A
:1017C00045D00228C6F8608004D0FFF7A9FC044683
:1017D00038E034E0FFF7A4FC074604E0FFF7A0FC84
:1017E000C01B02282BD828688001F7D4206AB0F5E6
:1017F000803F05D16868A16820F400300843686024
:10180000D4E908010843696821F474110843686049
:10181000C6F86090FFF784FC044606E015E000BFC0
:10182000FFF77EFC001B022809D828688001F7D545
:101830000BE000BFFFF774FC001B022802D9032055
:10184000BDE8F88F28688001F4D40020F8E7012073
:10185000F6E70000001002400000424280044242CD
:1018600018000020007000404FF0E02104280869B3
:1018700003D020F004000861704740F00400FAE74C
:1018800010B5FFF753FC04488168002902D0816835
:10189000491E816010BD00000000002010B5401EF0
:1018A000B0F1807F01D3012010BD4FF0E0246061D2
:1018B0000F21601700F0E4F80020A06107202061EC
:1018C000002010BD10B5FFF7DBFF10BDFEE70000E4
:1018D00004490968497911B100214170704701211B
:1018E000FBE70000D81C00080348016800200860DE
:1018F0004860024908707047D81C00082400002086
:1019000018B1012803D100F013B800F001B87047F6
:101910000648016802684979491CC9B251716329B6
:1019200002D900680021417170470000D81C0008EE
:1019300070B5084D2878411CCCB2052804D94FF465
:1019400000510548FFF7E2FB0A2C00D900242C7057
:1019500070BD000024000020001001403EB5124878
:10196000002410498460C460446101600125056160
:101970004FF460214460C161FEF774FF18B1432148
:101980000AA000F01AF9CDE900456946064802941C
:10199000FEF746FE002803D04D2104A000F00DF90B
:1019A0003EBD000000240140300000202E2E2F53A9
:1019B00072632F6164632E6300000000104810B54D
:1019C0000E4901600921416000214FF4002281602D
:1019D000C0E903124FF4A002C0E90521C161016210
:1019E00041628162C162FFF797F9002805D0BDE826
:1019F0001040452103A000F0E0B810BD0064004095
:101A0000600000202E2E2F5372632F63616E2E63B1
:101A10000000000030B5174885B0816941F0100121
:101A20008161816901F010010491816941F0200117
:101A30008161816901F020010491816941F0040113
:101A4000816180690C4D00F004004FF40054049053
:101A5000002221462846FFF75DFB0120CDE900402A
:101A6000002002900220039069462846FFF770FA92
:101A700005B030BD0010024000100140FEE7704785
:101A80000907090E002806DA00F00F0000F1E02037
:101A900080F8141D704700F1E02080F800147047B2
:101AA00070477047401EB0F1807F01D3012070471E
:101AB0004FF0E0214861054AF02082F8140D002023
:101AC0008861072008610020704700000FE000E0F7
:101AD00010B5FFF72BFBBDE81040FFF7F3BE30B5A4
:101AE00093B001210804CDE90010002502950224DD
:101AF0000491CDE907404FF4E01009906846FFF7E4
:101B000031FD00B1FEE70AA90F2081E831004FF452
:101B10008060CDE90D0502210AA8FFF73DFC00B168
:101B2000FEE74FF4004011900F940FA8FFF7BEFBA3
:101B300000B1FEE7FFF7DAFC4FF47A71B0FBF1F089
:101B4000FFF7ACFE0420FFF78FFE00221146501E67
:101B5000FFF77AFB13B030BD0D48016841F0010179
:101B6000016041680B4A1140416001680A4A114016
:101B70000160016821F480210160416821F4FE01C7
:101B800041604FF41F0181600449C0030860704741
:101B9000001002400000FFF8FFFFF6FE08ED00E035
:101BA0000148FEF79FBF0000600000200148FEF7DB
:101BB00099BF000060000020FEE7FEE702E008C8D1
:101BC000121F08C1002AFAD170477047002001E0B7
:101BD00001C1121F002AFBD17047000008B5FFF7B2
:101BE000ADFAFFF77CFFFFF715FFFFF7B7FEFFF732
:101BF000E5FEDFF8B880D8F80000FEF715FB2C4CA6
:101C0000DFF8B09022464B46FEF79CFAFEF719FB30
:101C1000FFF748FF284F0125C0B17D602E06D8F898
:101C20000000FEF701FB22464B46FEF78BFAFEF75B
:101C300008FB7968491C79607968B0FBF1F1B14221
:101C4000F7D27968B0FBF1F0FFF72CFF7868B86045
:101C50000020194C06462654401C0228FBDBFFF7E7
:101C600043FEDFF85880B8680028FCD17868B86077
:101C7000207818B1D8F8000011A1016025706846DD
:101C8000FFF726FE0020FFF73BFE26709DF80100BF
:101C90000028E8D0607818B1D8F8000008A10160E9
:101CA00028466570FFF72CFE6670DCE71800002000
:101CB000FCA9F1D24D62503F00000020D81C000862
:101CC0004F76657272756E00000000000000000023
:101CD000010203040607080928000020FC1C000874
:101CE0000000002030000000BC1B00082C1D000874
:101CF0003000002078040000CC1B00080000000029
:101D000001000000010000000100000010000000C0
:101D10000000000000A24A040000000000000000D3
:0C1D2000000000000000000000000000B7
:04000005080000ED02
:00000001FF
